{
  "_format": "hh-sol-artifact-1",
  "contractName": "NftMarketplace",
  "sourceName": "contracts/NftMarketplace.sol",
  "abi": [
    {
      "inputs": [
        {
          "internalType": "address",
          "name": "nftAddress",
          "type": "address"
        },
        {
          "internalType": "uint256",
          "name": "tokenId",
          "type": "uint256"
        }
      ],
      "name": "NftMarketplace__AlreadyListed",
      "type": "error"
    },
    {
      "inputs": [],
      "name": "NftMarketplace__NotApprovedForMarketplace",
      "type": "error"
    },
    {
      "inputs": [],
      "name": "NftMarketplace__NotOwner",
      "type": "error"
    },
    {
      "inputs": [],
      "name": "NftMarketplace__PriceMustBeAboveZero",
      "type": "error"
    },
    {
      "anonymous": false,
      "inputs": [
        {
          "indexed": true,
          "internalType": "address",
          "name": "seller",
          "type": "address"
        },
        {
          "indexed": true,
          "internalType": "address",
          "name": "nftAddress",
          "type": "address"
        },
        {
          "indexed": true,
          "internalType": "uint256",
          "name": "tokenId",
          "type": "uint256"
        },
        {
          "indexed": false,
          "internalType": "uint256",
          "name": "price",
          "type": "uint256"
        }
      ],
      "name": "ItemListed",
      "type": "event"
    },
    {
      "inputs": [
        {
          "internalType": "address",
          "name": "nftAddress",
          "type": "address"
        },
        {
          "internalType": "uint256",
          "name": "tokenId",
          "type": "uint256"
        },
        {
          "internalType": "uint256",
          "name": "price",
          "type": "uint256"
        }
      ],
      "name": "listItem",
      "outputs": [],
      "stateMutability": "nonpayable",
      "type": "function"
    }
  ],
  "bytecode": "0x608060405234801561001057600080fd5b50610682806100206000396000f3fe608060405234801561001057600080fd5b506004361061002b5760003560e01c806389bfd38f14610030575b600080fd5b61004a60048036038101906100459190610528565b61004c565b005b82823360008060008573ffffffffffffffffffffffffffffffffffffffff1673ffffffffffffffffffffffffffffffffffffffff1681526020019081526020016000206000848152602001908152602001600020604051806040016040529081600082015481526020016001820160009054906101000a900473ffffffffffffffffffffffffffffffffffffffff1673ffffffffffffffffffffffffffffffffffffffff1673ffffffffffffffffffffffffffffffffffffffff168152505090506000816000015111156101595783836040517fc2f0d709000000000000000000000000000000000000000000000000000000008152600401610150929190610599565b60405180910390fd5b86863360008390508173ffffffffffffffffffffffffffffffffffffffff168173ffffffffffffffffffffffffffffffffffffffff16636352211e856040518263ffffffff1660e01b81526004016101b191906105c2565b60206040518083038186803b1580156101c957600080fd5b505afa1580156101dd573d6000803e3d6000fd5b505050506040513d601f19601f8201168201806040525081019061020191906104fb565b73ffffffffffffffffffffffffffffffffffffffff161461024e576040517f94953b6000000000000000000000000000000000000000000000000000000000815260040160405180910390fd5b60008911610288576040517f096d7ecf00000000000000000000000000000000000000000000000000000000815260040160405180910390fd5b60008b90503073ffffffffffffffffffffffffffffffffffffffff168173ffffffffffffffffffffffffffffffffffffffff1663081812fc8d6040518263ffffffff1660e01b81526004016102dd91906105c2565b60206040518083038186803b1580156102f557600080fd5b505afa158015610309573d6000803e3d6000fd5b505050506040513d601f19601f8201168201806040525081019061032d91906104fb565b73ffffffffffffffffffffffffffffffffffffffff161461037a576040517f13e7d28d00000000000000000000000000000000000000000000000000000000815260040160405180910390fd5b60405180604001604052808b81526020013373ffffffffffffffffffffffffffffffffffffffff168152506000808e73ffffffffffffffffffffffffffffffffffffffff1673ffffffffffffffffffffffffffffffffffffffff16815260200190815260200160002060008d81526020019081526020016000206000820151816000015560208201518160010160006101000a81548173ffffffffffffffffffffffffffffffffffffffff021916908373ffffffffffffffffffffffffffffffffffffffff1602179055509050508a8c73ffffffffffffffffffffffffffffffffffffffff163373ffffffffffffffffffffffffffffffffffffffff167fd547e933094f12a9159076970143ebe73234e64480317844b0dcb36117116de48d6040516104a691906105c2565b60405180910390a4505050505050505050505050565b6000813590506104cb8161061e565b92915050565b6000815190506104e08161061e565b92915050565b6000813590506104f581610635565b92915050565b60006020828403121561051157610510610619565b5b600061051f848285016104d1565b91505092915050565b60008060006060848603121561054157610540610619565b5b600061054f868287016104bc565b9350506020610560868287016104e6565b9250506040610571868287016104e6565b9150509250925092565b610584816105dd565b82525050565b6105938161060f565b82525050565b60006040820190506105ae600083018561057b565b6105bb602083018461058a565b9392505050565b60006020820190506105d7600083018461058a565b92915050565b60006105e8826105ef565b9050919050565b600073ffffffffffffffffffffffffffffffffffffffff82169050919050565b6000819050919050565b600080fd5b610627816105dd565b811461063257600080fd5b50565b61063e8161060f565b811461064957600080fd5b5056fea2646970667358221220dc0da440336e0929ad71db9cd1ec877598987d79cac29a1b5d8c575aa98a131164736f6c63430008070033",
  "linkReferences": {},
  "deployedLinkReferences": {}
}